:03000000020800F3
:0C080000787FE4F6D8FD75810B020847F4
:0408D000020A000018
:0300030002088C64
:10088C00C0E0C0D0750A00750B00050BE50B7002BB
:10089C00050AB4E8F5E50AB403F0A2B4B392B405C2
:0F08AC0009E5097002050814F590D0D0D0E032AC
:1008BB00D2A0D2B2D2A8D288D2AF20A004D2A1802B
:0508CB00F9C2A180F557
:10080C000208BBE493A3F8E493A34003F68001F23F
:10081C0008DFF48029E493A3F85407240CC8C333ED
:10082C00C4540F4420C8834004F456800146F6DFBC
:10083C00E4800B01020408102040809008D0E47E74
:10084C00019360BCA3FF543F30E509541FFEE493B1
:10085C00A360010ECF54C025E060A840B8E493A378
:10086C00FAE493A3F8E493A3C8C582C8CAC583CAA3
:10087C00F0A3C8C582C8CAC583CADFE9DEE780BE5B
:0108D4000023
:00000001FF
